:400000000010002011000000650300006503000010B501F08FFE00F0ADF9000010B572B699222E4B12041A60EE222D4B2D4C1A60EE222D4B12021A602C222C4B18201A601D
:400040002B4A2C4B1A6020222B4B1A602B4B6B321A602B4A2B4B1A6080222B4B1A602B4B753A1A602A4B44321A60D822294B12011A600222284B1A601223236001F0EEFDC0
:40008000FE21264A264B09021A60264B264A01201A60264A11608021254A49011A60254A1160E021244A09011A60244A1160244A1A600022234B1A60234B43321A60234B1B
:4000C000033A1A60224B02321A60224B013A1A601123236000F02AF910BDC0460000024000010240300010400003024000000440801403000800044018000440000104405D
:40010000240C000008010440180104400002044018020440080304401804044000BF5D000C0301400000014043FF00800003014040FF00800803014042FF008004030140CB
:4001400041FF0080280003400C01014008010140040101400001014010B5064C2378002B07D1054B002B02D0044800E000BF0123237010BD0001002000000000A4220000DC
:40018000084B10B5002B03D00749084800E000BF07480368002B00D110BD064B002BFBD09847F9E70000000004010020A4220000800000200000000010B5012001F0C0FE41
:4001C000024A13780133137010BDC0461C01002070B500F0A7FC3B4CC0B260703A4D3B4E102808D1A378012B1DD10023E278A3702A746B745BE0002806D1E3780B2B0DD1D4
:400200002B74E070687452E01038082843D801F075FF0A1821422D4242423600E0702070A070207141E023780A2B03D90021042000F096FC0B23E3700A3B6B7400232371AA
:4002400033E02379002B01D10133A3707323E370337E07E02379002B01D10133A3707223E370737E6B74002323701EE02379002B01D10133A370A423E370B37EF2E723791E
:40028000002B01D10133A3706623E37000232370F37E6B7409E000230122A370E370237822710A2B01D900F07FFCE3782B746378002063717369002B00D1012001F0C6FD65
:4002C00070BDC0461C01002083010020AC01002010B562B601F026FE01F040FD114C12220021200001F0D5FF00F096F822001021122000F0FFF800F0A3FA00F055FC00F0BE
:4003000067FD094801F0BEFD00F02AFD002805D100F0B8FAFFF75CFF00F05AFD0A2001F025FCF1E783010020B90100000B4A10B51368002803D0802109060B4301E05B00D1
:400340005B081360064B202419680A00A243002801D022000A431A6010BDC046002002402800034010B501F05FFF03680C2B00D1FEE7FEE7F8B500250F49104B01394A1CAA
:4003800014D000221F685C689E68A018B24203D0B858A0500432F8E70200DE68141AA64201D020C2FAE710330139E8E701F042FFFFF78EFFFEE7C0460100000084240000CB
:4003C000002370B509480A4C0A4D9A002100032B00D8A95801338150202BF6D1FFF71EFE8022054B92051A6070BDC04600000020650300000000000008ED00E08021054A49
:4004000010B5136809060B431360072001F090FB10BDC0460000084010B5054C2378002B03D100F007F801232370FFF7E7FF10BD2401002010B50024194B1A4A1C601A4B18
:400440001A491A601A4B1B4A072013601A4A14601A4A11601A4A13601A4B1C6001F072FB0321072001F04AFB1749072001F03EFB5222164BFF321C60154B1C60154B1A600E
:40048000154B1C60154B1C60154B1C60154B1C70154B1C70154B1C80154B1C7010BDC0460000084000080040600008401000FE000701008000030840040308401003084052
:4004C000000208400402084025050000C80E0840880E0840480F0840080F0840C80F0840880F08409C010020A00100209A0100209801002070B506000D00141E0BD00720E4
:4005000001F020FB044B07201C60044B1E80044B1D8001F00DFB70BDA4010020A80100209E010020F0B59E4B85B01B68002B00D098479C489C4904680B689C4D0193022307
:40054000FF332A8823400295844603912DD0202497490B685B005B080B60964B1878A04318701878103C2043187093480568254206D1924C2478944206D01C78082501E091
:4005800002251C782C431C708D4C8E4B25682B40236000238C4C236003608C48037080200B68000603430B60F6E00199C90601D587490B600A230199194200D17BE0854BF8
:4005C0001B685B0744D5844B804819680378002B10D0012B3AD1814E814D3088002833D02B60804BC9B21B6801389B181970013230802BE07C4D2E88794DB14224D20122A0
:400600002A607A4A1288914201D2531A9BB2734A1380072B02D80123037011E0684A6A48082B06D1A02513682D022B431360002305E080251368AD012B431360082303608B
:400640005E4B0A00197001E002232B60042130E05B4803689B042ED50221019B194008D0634B19681F2305680B4056492940016007E05A4D2B88083B9BB22B80082B01D9BD
:4006800008230121574FD218D51A002B07D03E68013B7519504E3668F6B22E70F4E7002906D1802503682D022B430360464B19600C21504B196002230199194247D0E1062C
:4006C00013D50021404801603B4801603B4909788A4200D008333749234008780343202083430B700021394B197063062DD520211020304A13780B431370304B1A783E4BA8
:400700001B68034211D08025374B34491B886D029B1A0B80394B1968294319601D68384929401960244B186002E00421264B1960012160461025334B1960334B0360334820
:4007400003682B430360264B196063461C60039B1B685B0720D5FF20002484461F26214B1E491F682A4D0B88002B08D0B8180078013BC0B2286001329BB2012401E0604653
:4007800028602448006830400828EDD1002C00D00B801021204B1960029B1A8005B0F0BD28010020400F0840000E08409A01002000000840A0010020880F084098010020B8
:4007C00060000840FF5FFFFFC80F08409C010020880E0840CC0F0840400308402C0100206C000840A4010020A80100209E01002008030840C00F08406400084004020840DB
:40080000FFFFFEFF800E0840FF0F0000480F08404002084008020840800F084010B5074C2378002B05D100F041F900F081F90123237000F045F800F087FC10BD2E010020CC
:4008400070B5FFF7EBFF041E13D100F072FB041E0FD100F0BDFA041E0BD1094D00F080FA002803D0002D03D0013DF7E7002D00D1102400F052FA00F097F9200070BDC04651
:40088000404B4C00F8B50026012734001C256543094BED18094B1B69E3403B4207D0280000F047F829000600200000F0D9F80134052CEBD13000F8BD00230000AC01002043
:4008C0000022124B70B55A61114C013A114D124E1A61B54218D00021A27D23682970012A02D0062A05D00CE0E068002809D0A28A04E0E068002804D0A28A5200D97901F039
:40090000C8FC1C34013DE4E770BDC046AC01002004230000C8010020C301002010B500244A880B88CC809B1A0279934200DDCB8010BDF0B500240500836885B003934368E3
:40094000C7680193837E0C37029300940A2638006643039B0C389E192B8B9C4210D2029A310000F0ECF9029A3100019800F025F9310000900198FFF7D1FF01340C37E5E7AD
:40098000009805B0F0BDF7B50B8B8C68019301234D680969019A561E019626D31A006E88AF79B4460240F61B002A01D13E006644E788BE4203D293420AD01A0002E0002A07
:4009C00011D000220E78013EF6B20E70002E06D1984310430126002A00D1EE790E705B000A340131D6E79843F7E7FEBDF7B50B8B0A695B00D318019301238F684D680199DA
:400A00008A4229D0F988154C8C466988234201D1298A0A371C00AE79044003D171188C4503D817E0891B8C4503D9A34208D01C0000E0002411780139C9B21170002906D1AD
:400A4000984320430121002C00D1E979117001325B00D4E79843F8E7FEBDC0465555555570B5114B05001A18107E8A7E1C00012A04D0062A04D1FFF7B9FF01E0FFF783FFA9
:400A80001F22631918766B0904339B001540E3181E3AAA405968002802D191430A0000E00A435A6070BDC046AC010020F8B5194CB0220021200001F0ECFB174B032223806B
:400AC00080235B006380154B2000A380C2239B00E3832300AD331A70631C114C023ADA772230A11D513201F0CBFB26002300EC366033B3420DD01D8A20002A001968013ACF
:400B000004D3077801304F720A31F8E764191C33EFE7F8BDAC01002048670000B80B0000A8220000014B58697047C046AC0100200023024AD380024A13607047AC01002057
:400B40007401002000218318520019718018028842801972704710B50022FFF7F3FF10BD1C235843054B10B51B189C689A7E0A234B431100E018FFF7EEFF10BD00230000B1
:400B80001C2370B504004343064AD3181B8B5D1E002B05D029002000FFF7E2FF2B00F6E770BDC0460023000010B50524013C03D32000FFF7E5FFF9E710BDF8B5050008000B
:400BC0000488438811009C4205D26E791A1BB2421AD8002603E00026E21A067201362F79BA420BD8FF2502791B0213436B4324021B191A0A1B0C438002710FE06D79AA4219
:400C00000CD8002EEED009E0037A2A7A9A4202D90133037202E00022FFF794FF0020F8BD0B88038070470B88D2B210B59B01C024062A07D1028854431C19240AA4B2048089
:400C40000C8006E0028854431B191B0A9BB203800B8010BD0B8843808380704770B50C884588838822002E00AC4201D92A00260085804480B34200D93300934200D21300D3
:400C80000B8070BD0B88C38003814381704700001C2103004B431B4AF0B5D3180A221B8B85B05A430A3A00920C221F005A430C3A029001920391002F22D0029A039B00998D
:400CC0005343104A013FD3189E7E9A68DC68019B5518E418320029002000FFF7A1FF320029002000FFF7B6FF320029002000FFF7C9FF009B0A3B0093019B0C3B0193DAE757
:400D000005B0F0BD0023000010B50524013C03D32000FFF7BDFFF9E710BD10B5FFF7F4FF10BD70B50C88C5880689438962199219D3189B0846810581C4800B8070BD70B5B0
:400D40000D0016000400FFF789FF320029002000FFF769FF320029002000FFF7E2FF70BD024BD868802318407047C046AC01002080230A4A10B5D4685B021C401123002C53
:400D800009D1103B042806D81269C2401A4202D000F0BEFC2300180010BDC046AC010020094B10B5DC6880235B021C401120002C09D1064B1B78012B03D100F009FC2000EB
:400DC00001E00120404210BDAC010020780100200C4B10B5DC68802311201C4011D12000FFF7C6FF002809D1074B042C02D001225A7000E05870FFF7D3FF02E00134052CF4
:400E0000EDD110BDAC01002078010020F7B50600012807D0022802D00025062704E00525002701E000252F00164C01F09AF801900720231F1A68E16813688B431360A17DD3
:400E40009C46884023681B68834338008840216803430B602900237D019899400B0061460B4313606268216913681C348B43136001F07BF8044B9C42D7D1300000F078F9E2
:400E8000F7BDC046A42300003024000010B5174CA3780133DBB2A370A078C0B2FFF768FF002806D1A378042B00D16070FFF778FF1BE0A2780E4B0006042A0ED180211A8943
:400EC00001321A81DA688A43DA60DA681202120ADA60DA681043D86007E0DA681202120ADA60DA681043D860D1E710BD78010020AC010020064A074B01381A60064A000270
:400F000010601A68002AFCDB044A024B1A60704740000040000001400003014040FF008010B5042801D9012002E0552100F04EFC10BD70B5002425002000FFF7F1FF01343A
:400F40000543052CF8D1280070BD01238B400103013B091A0622994205D9F9325043FA3A834200D20022D0B270470000F7B52C4F3B68002201939E891988300000F030FA31
:400F800004009F2E27D9274B984206D9264901F045F90425002929D003E0FF235B00984207D92249200001F039F9032500291DD001E07E2807D97F21200001F02FF90225DF
:400FC000002913D001E03E2805D93F21200001F025F9002922D0019B70001988FFF7B5FF421ED2B205000023032A0ED8C8203100C00001F08DF80023092802D801334000AF
:40100000FAE70A38421E90411B1A1B011D43019B1C379D73064BBB42AAD1F7BD0125E5E704230000FE030000FF030000FF01000090230000F0B5264C264D236885B0264EA2
:4010400000932B680390019333683827029300F088FFF02223689343236000F086FF00F080FF02222B6893432B6000F07EFF00F078FF30223368BB431343336000F075FF1F
:401080006B46988900F046FE00F06BFF029A3368BB4317401F43376000F067FF00F061FF022202212B689343019A0A4013432B6000F05BFF00F055FFF022F021236893431D
:4010C000009A0A401343236000F04FFF05B0F0BD00040240000404400804044070B5050014000E0000F03DFF2B685C4034405C402C6000F03AFF70BD70B5104D04002A78F4
:40110000824219D0012A0CD10D490E480B6893430B600022F021FFF7E1FF00F0E9FA00F060F8012C03D100F061F82C7004E0023C022C01D900232B7070BDC04678010020DC
:40114000A8020B400004024010B50024FFF70EFF0020FFF75BFE054B2000AD331C70FFF7CBFF0120FFF7C8FF200010BDAC010020F7B5012803D0022804D1052400E00024D1
:40118000002501E00024062500F0EBFE114B9F7C1E68BC463268D96807278A435968326000910968019161468F400199B9436746BD402943009D2960197C8C4014433460B1
:4011C00099685C7C0123A3400A689A430A6000F0CCFEF7BD8C23000010B50220FFF7C8FF10BD10B50020FFF7C3FF10BDF8B5424C2500AD34AC3528782378834203D0FFF773
:4012000005FE2B782370FFF7E7FF0120FFF712FFC0220024394B3A4D12031A602B68394A394E13432B60394B394F1C60394B60221C60394BF0211C60384B39481C60394B34
:4012400034601C60384B3C601C60384B1C60FFF745FF220002213648FFF740FF8021354A490113680B4380211360334B4900196088235B0213603C602B68224A2F49134327
:401280002B6080232E4A5B0413602E4A2E4D116002222E4932602E4A174E1160224A013613602C4A2C4B1A60C5222C4B52041A60F07FFFF71FFE2A4CF17F236829481D406B
:4012C00000F026FF284A2300904201D8902200E09822520015431D601B68244A1343244A13600F22234B1A600022234B1A60234B0A321A60F8BDC046AC01002004020B40DE
:40130000A8020B400100001084010B40F4000B4080020B40B4020B40C0020B4020030B400004024088020B4084020B4080010B400004044094020B40A0020B40411200002E
:40134000A4020B4088010B408FFCFFFF0000030190020B4000008F01C0010B40C4010B408400002000366E01001BB7000010008000000B4000030B40F0010B4010030B40B4
:40138000F8B50700837A104ADB009C5800F0E9FD0E490F4A0D7813680E4E7F19797A334023430B43136000F0E0FD00F0DAFD0A4B1A681640094A3443126855196E7A34437A
:4013C0001C6000F0D2FDF8BD2C2400005C240000C0010B4080FF3FFCC4010B405C02002001238B4070B5050014001800102900D11D38002D02D0290000F08AFE053C012C27
:4014000000D840080123002800D00300180070BD0D4B1A781C2353430C4AD3185A689389927B1104053A012A02D8802080040143D2B2012A02D85B0800D10133044A013B01
:401440000B4313607047C0467A0100200023000000020B4010B5827B01888089FFF7C0FF014B80B2186010BD14030B40F0B50A2087B000F067FB0123334F9C463B60062212
:401480000023324E324D334C3348344933602B6023600260FA320A606146314A11600631FF318C4662462F490A602F4A944613602E4A0333136003950A00654604210197B3
:4014C00002960494254F264C284EED3305901068084203D1002B03D0013BF8E7002B01D10823336083235B0013600A2000F034FB0A2000F01DFB80235B023B600023039AF7
:4015000080211360049A490413609423059A9B0113605023029A23604F3B1360019A1360134A13680B43136002230721114A2B60EF331068084202D0013B002BF9D10E4B2B
:40154000336007B0F0BDC04680010B408C010B40B0020B40B4020B4088020B4080020B40F0010B40F0000B40F8000B4040030B4000020B4000000B400103000010B5054A32
:401580000549D3680A200B43D36000F0C3FBFFF76DFF10BDAC01002080000100F8B50400077E857E00F0DDFC0F22BA40266807213368A94093431A000423BB406468134331
:4015C00022688A432260336000F0CFFCF8BD00001C23F7B51A4C1B4D26002A78AC365343194AAD34D3185B68019330782378834203D0FFF70BFC3378237000231C24134EB6
:40160000114F33702A78317862430A334B43BA1892680198D3180E4A1360FFF7B1FE2B78307863434443D8590A4B00191860FFF7B5FF094800F01AFAFFF7A0FFF7BDC0464F
:40164000AC0100207A010020002300007B0100205C02002060020020F51F00001C2302005A434B43044910B55058C018034B1860FFF794FF10BDC04600230000600200206A
:40168000F7B507270400857E067EAF4000F069FC626801901368BB43276819003B689C460F236046B3409843386003000F488446AD20844460460078002804D10623AB405A
:4016C0000B43136006E0022804D10525B5402B4311603B600122A168647E0B68A24093430B60019800F041FCF7BDC046AC01002010B5054C2378012B05D1044B1868FFF742
:40170000BFFF0023237010BD7C01002060020020F8B51C24230043430F4D104FC0B2FB18287001205E68FFF7E7FCFFF7E1FF7F212B7830005C430A4BE2591A60094BDA6893
:401740008A43DA602978DA680A43DA60FFF782FEFFF75EFEF8BDC0467A0100200023000060020020AC01002070B51C2423004343104A114DD2180A23C9B229702978566818
:401780004B439268D3180D4A1360FFF7C1FF3000FFF7F6FD28780A4B60431A6810181860FFF7FCFE0122074B07481A7000F05EF970BDC046002300007B0100205C0200206E
:4017C000600200207C010020C91F0000F0B5994B89B0DB68029003911122DB0300D526E103000B32534394490792CB185F680423BB7201203B8864219840039B01385843CD
:4018000000F086FC0024029A079B069053438A4A0194D3180593059B019A198B08338A4236D20A25019B40265D43059B7E729B685D1907236E72049301990298FFF794FF96
:401840000120FFF7F7FBFFF799FE7C4B794A8020D168014202D0013B002BF8D12B88069A9A4202D97B7AB3437B727B7A76083343DBB27B726B72049B013B0493002BDBD1BF
:401880007B7A002B30D101337B7201236B722BE01B687C720193BD7A261E02D07F237E2C00D823000A224A4301998A1804920A0004998A4205D0517A8B4200D90B000A32B6
:4018C000F6E7002D29D0132B27D85D49EB00013DEA00CB188A185168586800F019FC46437E2E1AD8BD7284E7019902987D7AFFF73BFFFFF743FE8022504B4E49C868104243
:4019000002D0013B002BF9D12B1CA54200D2231CDCB2019B013301937DE7019B029A18881C235343444A2500D3180022DB7E0693019B06998A4208D2597A8D4202D80A3316
:401940000132F6E718880D00F9E701233A889340013B059364230599584300F0D9FB64306843039900F0D4FBA04200D9200032230025039E019C46439B1B78720793069B28
:40198000AB4216D9642320880599584300F0C0FB637A64305843B04208D3079B6421181800F0B6FB60720A340135E8E700236372F9E780240298FFF7ABFEFFF709FE214936
:4019C0001C4AD0680300234005D0002901D00139F7E710222BE01022002928D001243A8818009440039B013C0A2B01D918000A386043642100F08CFB039D06000A35642D40
:401A000000D9642520006421684300F081FB0022049B01998B420AD0019B1B88B34201D3834200D90622019B0A330193F0E7100009B0F0BDAC0100200023000001A60E0059
:401A40002C24000000366E0110B5040000F089FA044A054B1168A4050B401C43146000F084FA10BD08E400E0FFFF3FFF10B58024054BE4001C60054B98660320FFF7E4FFB1
:401A8000034B1C6010BDC04680E100E00000002000E100E00B480C4A0C4B10B51B68116804680B4A9B00224002601C2213400A07920F1833D340074A9B181B78064ADBB271
:401AC000136010BD0000074028000340080F0340FFFFFFBFCDF1FF0F0C0F0340024B18684000C00F7047C04600000740024B8000C31818681960704740000020F8B5032646
:401B000005003540B5400F0004000635AE40AF4000F027FAA408054BA400E4182368B3431F43276000F021FAF8BDC04600E400E01F2318401E3B8340014A13607047C04639
:401B400000E100E01F2318401E3B8340014A13607047C04680E100E01F2318401E3B8340014A13607047C04680E200E070B5802504002D02064BAC4205D9586800F0E8F914
:401B8000044BE418F6E79868604300F0E1F970BD880000200080FFFFF0B585B000F0C4F8002846D000F0DDF90024234A234B01901B681068224A234D14602968224A9B0040
:401BC0001140A022520311431C2213400207920F1833D3401D4A1E4E53438022D2019B18DB0B013B0B432B6033683020039300F063FA8021174AC90513680B4313602A6898
:401C0000154B1A40170001201034FFF7AFFFA3053B432B60F02CF6D10120FFF7A7FFFF23084A9B053B431360039B0198336000F09CF905B0F0BDC04628000340080F0340F8
:401C40000C0F03400800074000F800C040420F003000104000000740FFFF3FC0F7B50500183D0400182D45D80126234B3700EB409F433FD100F075F90190FFF72FFF0097AB
:401C8000002802D0FFF706FF009607271B4E1C4A33681C49BB4333601B4BE3181B78DBB213601A4A1368BB431360194B0A68E31818787F239A43034013430B60322000F0A1
:401CC00047F9182C0ED033681C3CA408BB433C401C433460322000F03BF93368AD08BB431D433560009B012B01D1FFF755FF019800F03BF9F7BDC04611111101080F0340D5
:401D00000C0F0340180F0340CDF1FF0F100F0340B4F1FF0F10B5034B1B7B584300F018F910BDC04688000020014B1868C00F704700000740014A024B1A6070476588EDAC52
:401D4000380003408021044A10B5136809060B43136000F065F810BD0000094010B5054C2378002B03D100F007F801232370FFF7E9FF10BD7E010020154A164B07201A6085
:401D80000023154A15491360154A1160154A16490A6016490860164906380B601549086015490A600421154A1360154A1160154A1360154A1360154A1360154A1360154A0D
:401DC0001360154A13601268144B1A807047C0460B000002000009404000094001000A0048000940070000800003094004030940100309404400094000020940040209404D
:401E000050000940880E0940C80E0940480F0940080F0940C80F0940880F094080010020064A074B11680B40902109040B431360044B1A88044B1A607047C04600000240CC
:401E4000FFFF0FFF80010020880F094008230449C0000A689A43D2B2034013430B6070470001044010B5040000F07BF8044AA40713689B009B081C43146000F076F810BDEE
:401E800008E400E010B58024054B24011C60054BD8660320FFF7E6FF034B1C6010BDC04680E100E00000002000E100E08022084B92041A600C22074B1A60074B0B3A1A60A1
:401EC000FA22064B92001A600022054B1A607047000106402401064038010640140106400801064070B50D000400AC4000F039F8024B1C6000F039F870BDC046080006403D
:401F000010B5012400F02DF8054A13682343136000F02BF818212000FFF7E4FF10BDC0460000064010B5054C2378002B03D1FFF7BDFF01232370FFF7E3FF10BD8201002040
:401F4000014B18607047C04630010640000000000230800803D001300238FCD1C046C0467047EFF3108072B6704780F31088704710B50F4B0F4819780F4B00681A681C2344
:401F80004B430E4994B2CB185B68198801238B40013B0B499C4203D20B785B001A5202E00A78520013520022064B1A6010BDC0467A0100205C020020D0000B400023000001
:401FC0005C24000088020B408322074B520010B51A60FFF7CDFF054B1A89D96801321A81034A0A40DA6010BDF0000B40AC0100207FFFFEFFF8B51C24274E284A3378284D2B
:4020000063439B5883222F7852006743DF19254B1A60FFF7ADFF3800FFF732FB337832781E4862438218127E2978013ADBB28A421CD96343C31858682B780133DBB22B70EC
:4020400033782A785C43154B1C190A235343A268D318154A1360FFF793F930782978C0B2C9B2FFF7FBFAFFF701FA14E000232B700E4B0F4AD9680A40DA600E4A1278012A8B
:4020800002D1FEF703FF06E08021DA688A43DA601A8901321A81F8BD7A010020002300007B010020F0000B405C020020AC010020FFFFFEFF7901002010B50400FFF751FFDC
:4020C000102C04D803210C4A13688B430FE0202C05D80321084A13688B43023906E0302C06D80321044A13688B4301390B431360FFF73BFF10BDC0463000104002B471462D
:4021000049084900095C49008E4402BC7047C046002243088B4274D303098B425FD3030A8B4244D3030B8B4228D3030C8B420DD3FF22090212BA030C8B4202D31212090223
:4021400065D0030B8B4219D300E0090AC30B8B4201D3CB03C01A5241830B8B4201D38B03C01A5241430B8B4201D34B03C01A5241030B8B4201D30B03C01A5241C30A8B422E
:4021800001D3CB02C01A5241830A8B4201D38B02C01A5241430A8B4201D34B02C01A5241030A8B4201D30B02C01A5241CDD2C3098B4201D3CB01C01A524183098B4201D3A7
:4021C0008B01C01A524143098B4201D34B01C01A524103098B4201D30B01C01A5241C3088B4201D3CB00C01A524183088B4201D38B00C01A524143088B4201D34B00C01A41
:402200005241411A00D20146524110467047FFE701B5002000F006F802BDC0460029F7D076E770477047C046014B18687047C046FC0000200E4B70B500251E000D4CE41A0A
:40224000A410A54204D0AB00F35898470135F8E700F006F9084B00251E00084CE41AA410A54204D0AB00F35898470135F8E770BD6C2400006C2400006C2400007424000060
:40228000002310B59A4203D0CC5CC4540133F9E710BD03008218934202D019700133FAE770470000000000002020202020000C00C80028280A031E200400080000000C00A6
:4022C000C80028280A031E200400080000000C00C80028280A031E200400080000000C00C80028280A031E200400080000001000580228280F031E200400040000009001D6
:40230000A0230000CE0100202002002060010020710100200128000001000101BC230000DE0100202A02002054010020700100200128000001000101D8230000EE01002004
:4023400034020020480100206F0100200128000001000101F4230000FE0100203E0200203C0100206E0100200128000001000101102400000E020020480200203001002015
:402380006C01002001280000010006010002024008020440000204400000000F1806120000020240080204400002044004020440000F0000040000000802060000010240C0
:4023C000080104400001044004010440000000F0800000001C07150000020240080204400002044004020440F0000000020000000401030000020240080204400002044066
:40240000040204400F00000001000000000000000002024008020440000204400402044000F00000080000000C030900000000017C92000000000003F824010000004001A0
:40244000E093040000004003C027090000008001009F240000008003003E490000430000F8B5C046F8BC08BC9E46704781010000C1030000F8B5C046F8BC08BC9E4670474F
:402480005901000098240000800000208000000068010000000000000000000020000004010000000000E02EC05D00001800000000366E0100000000000000000000000070
:4024C00000000000000000000000000000000000000000005D240000000000000000000000000000000000000000000000000000000000000000000000000000000000005B
:4025000000000000000000000000000000000000000000009C00002000000000000000000000000000000000000000000000000000000000000000000000000000000000DF
:40254000000000000000000000000000000000000000000000000000000000000000000000000000000000000000000000000000000000000000000000000000000000005B
:40258000000000000000000000000000000000000000000000000000000000000000000000000000000000000000000000000000000000000000000000000000000000001B
:4025C00000000000000000000000000000000000000000000000000000000000000000000000000000000000000000000000000000000000000000000000000000000000DB
:40260000000000000000000000000000000000000000000000000000000000000000000000000000000000000000000000000000000000000000000000000000000000009A
:0200000490303A
:02000000673A5D
:0200000490402A
:200000000000000000000000000000000000000000000000000000000000000000000000E0
:0200000490501A
:0C0000000002190B11A90001191678E389
:0200000490600A
:0100000001FE
:00000001FF