:400000000010002011000000ED020000ED02000010B502F02FFA00F071F9C04610B5144C12232360182002F0A5F9FE221202114B1A60114B114A1A6080214901104A1160CB
:40004000104A1A60E02109010F4A11600F4A1A6000220F4B1A6040320E4B1A6002320E4B1A60013A0D4B1A601123236010BDC04630001040000301400000014040FF008067
:400080000803014042FF00800403014041FF00802800034008010140040101400001014010B572B699221204164B1A60EE22164B1A60EE221202154B1A602823144A136050
:4000C000C4218902134A1160134A13608B22134B1A60134A134B1A608022134B1A60753A124B1A604432124B1A60D8221201114B1A600222104B1A60FFF790FF00F0F0F8B2
:4001000010BDC04600000240000102400003024000000440080004401800044000010440240C000008010440180104400002044018020440080304401804044010B5064CAD
:400140002378002B07D1054B002B02D0044800E000BF0123237010BD000100200000000088290000084B10B5002B03D00749084800E000BF07480368002B00D110BD064B2A
:40018000002BFBD09847F9E7000000000401002088290000800000200000000010B5074C11220021200002F0E6FB00F001F922001021112000F06CF910BDC0469C01002062
:4001C00010B500F0CFFCC0B21B4B187030281FD880001A4B1B589F460022174B5A701AE02022154B5A7016E02122134B5A7012E02222114B5A700EE024220F4B5A700AE0E0
:4002000028220D4B5A7006E030220B4B5A7002E02022094B5A70084B5A78094B1A74094B5B69002B03D0002002F0D4F902E0012002F0D0F910BDC0461C0100208C29000039
:400240009C010020C401002010B562B602F02EF9FFF7A4FF00F0DEFA00F094FC00F076FD00F0F6FF00F0B6FF002814D100F0F6FA00F092FC0A4C0221200002F035F9C8210B
:40028000084802F031F9201D032102F02DF9FFF797FF00F0DDFF012001F0ECFFE2E7C046502A0000C40100200B4B1B68002803D080221206134301E05B005B08064A136090
:4002C000064B1B68002802D02022134301E020229343024A13607047002002402800034010B50120FFF7E0FF10BDC04610B502F00DFB03680C2B00D1FEE7FEE770B50F4E50
:400300000F4D13E029686B68AC68002202E001C901C30432A242FAD1E868002202E0002102C304328242FAD11035013E002EE9D102F0F2FAFFF788FFFEE7C04601000000CD
:400340009C2C000010B500230AE0032B03D89A000849505800E008489900084A885001331F2BF2D9FFF79CFE80229205044B1A6010BDC04600000000ED0200000000002097
:4003800008ED00E010B5072001F01CFF10BDC04610B500F01DF810BD10B5044A1368802109060B431360FFF7EDFF10BD0000084010B5064B1B78002B04D1FFF7E9FF012266
:4003C000024B1A70FFF7E8FF10BDC0462001002010B50024194B1C60194A1A4B1A601A4B1A4A13601A4A14601A491B4A11601B4A13601B4B1C60072001F0EEFE03210720D4
:4004000001F012FF1749072001F0FCFE164B1C60164B1C605222FF32154B1A60154B1C60154B1C60154B1C60154B1C70154B1C70154B1C80154B00221A7010BD0000084086
:4004400000080040600008400701008000030840040308401000FE00100308400002084004020840C1040000C80E0840880E0840480F0840080F0840C80F0840880F0840AC
:40048000B4010020B8010020B2010020B001002070B506000D00141E0BD0072001F09CFE044B1C60044B1E80044B1D80072001F089FE70BDBC010020C0010020B6010020EE
:4004C00070B5AB4B1B68002B00D09847A94B1C88A94B1D68A94B1E680223FF331D4238D0A74A13685B005B081360A64A137820218B431370117810230B43DBB21370A24B8A
:400500001B68DB060CD4A14B1A789A4B1B889A420CD09C4A117808230B43DBB2137005E0984A117802230B43DBB21370984A1168984B0B4013600023974A1360924A13602C
:40054000964A13708E4A1368802109060B4313600AE1F30602D50022914B1A600A23334200D192E08F4B1B685B0758D58E4B1A688A4B1B78002B17D0012B49D18B4B1B88BC
:40058000002B0DD001218A4B19608A4B1B681B19D2B21A700134854A1388013B13803AE00222834B1A6036E0834B1B889A422BD201217F4B1960814B1B889A4202D29B1A9C
:4005C0009BB200E0002379490B80072B03D80121724B197014E0082B09D16D490B68A020000203430B6000216B4B196008E068490B688020800103430B600821664B1960CB
:40060000624B1A70140006E00222694B1A6002E0002001F0F5FD0422694B1A6035E05C4B1B689B0431D5B3070DD5664B1B681F211940574A1068574B03401360012014E02B
:400640000821012011E0594B1988083989B219800829F5D8002008E0564B1B681B19524A1268D2B21A70013401390029F4D1002808D1474A1368802109020B43136000226A
:40068000454B1A600C224E4B1A60B3074BD5EB0615D50023404A13603B4A13603B4B1B789C4201D1022300E00A232B40354A11780B4320218B4313700022384B1A706B0634
:4006C0002FD5304A117820230B43DBB213702F4B1B781C003C4A1268D20612D5364A1288D31A324A1380394B1A68802149020A431A601968364A0A401A601022224B1A60BD
:4007000002E00422244B1A600122324B1A603249194B196031490868102303430B60244B1A60154B1D60154B1B685B071CD51F4B1B88002B0CD01F4B1B681B191B78DBB237
:40074000274A13600134194A1388013B138002E0FF22234B1A60234B1B681F221340082BE5D10F3A204B1A60024B1C8070BDC04624010020B2010020400F0840000E0840EB
:4007800000000840B8010020880F0840B001002060000840FF5FFFFFC80F0840B4010020880E0840CC0F084040030840280100206C000840BC010020C0010020B601002052
:4007C000C00F0840080308406400084004020840FFFFFEFF800E0840FF0F0000480F08404002084008020840800F084010B5084B1B78002B06D100F077F900F0C3F9012288
:40080000034B1A7000F04CF800F0E8FE10BDC0462A01002070B5FFF7E9FF051E02D100F0E3FD0500002D02D100F012FD0500002D02D00BE0013C00E0074C00F0CBFC0028AD
:4008400001D0002CF6D1002C00D1102500F02AFB00F07CFA280070BD404B4C0070B50E4E0024002513E06B0904339B000B4A9B581F222A40D340DB0707D5300000F054F8A8
:4008800004003100280000F0FBF81C360135052DE9D9200070BDC046602A0000C401002070B5002309E018491A1D92008818002444600120404250500133002BF3D0134C33
:4008C00006231CE06668A27E0F4B5B1900211976012A02D0062A08D00FE0206900280CD0F179228B02F047F807E02069002804D0F179228B520002F03EF81C342B005D1EAB
:40090000002BDFD170BDC046C4010020602A000030B50B884A889C1A0025CD800079844200DDCC8030BDC046F0B55F4680B484B00600837E062B02D10122934601E00022B1
:400940009346F568B46872680192029300270023039316E0029A2100280000F0C5FB029A2100019800F02EFB039021000198FFF7CFFF0A345B46002B01D10C3500E00C35FA
:400980000137338B9F42E5D3039804B004BC9346F0BDC046F0B50A8B8D684F680B69012125E00C00044003D17E88BA79B21802E07A88BE79921BEE88B24201D3002200E05D
:4009C0000A00A24202D01E78013E1E70A24202D01C78002C07D188431043002A01D1FA7900E001221A7049000A3501336246541EA446002AD5D1F0BDF0B54F464646C0B4F5
:400A00008B6899464D680A69098B490001232CE04946CE886988194C234203D1298A0A24A046C1441C00044003D1AF79B846414401E0AF79C91BB14201D3002100E01900C2
:400A4000A14202D01678013E1670A14202D01478002C07D198430843002901D1E97900E00121117001325B0061464C1EA4460029CED10CBC90469946F0BDC046555555554E
:400A800070B504008A7E174B1B181D7E012A02D0062A05D009E02800FFF77CFF050007E02800FFF7A9FF050002E0002001F0A8FB0C4B1B191D7663091F2214401E3AA240AB
:400AC000002D07D104339B000649CB1859689143596006E004339B000249CB1859680A435A6070BDC401002070B5194CC8220021200001F040FF174B238080235B00638014
:400B0000154BA380C2239B00E3830322C723E254023AA73BE2542000223061320F49303101F020FF0E490C00083406230CE0A268238B04E00B78537201310A320300581E66
:400B4000002BF7D11C342B005D1E002BEFD170BDC4010020F8FDFFFFB80B0000D82A0000582A00000123002006E0131D9B000449CB185B68184313005A1E002BF5D17047DF
:400B8000C40100200023024AD380024A13607047C40100208C01002070B5002500263F4B1B68032B06D101F02CFD01223C4BDA8001F02BFD3A4BDC88E4B2062C23D8A3007E
:400BC000384AD3589F460122344B1A6001261AE00022324B1A60012615E0FFF71BFE00222E4B1A60012501260DE002222B4B1A60012608E00022294B1A60012603E0032231
:400C0000264B1A600026002E0FD001F0FAFC244BDB88DBB29C4205D1214AD188224B0B439BB2D38001F0F1FC00261C4B1B68012BB5D0022B2FD11A4ABE33D35CDBB2C121BE
:400C4000525CD2B2052B26D8D800C01A810017484118098B8A421ED21149088980B2C224095B89B2884216D0D900CB1A99000F4B59188C6893009A185300E41801F0C1FC2F
:400C8000074B1A8992B2C2215A52228892B202315A5201F0BAFC280070BDC0468C010020C4010020282C00000080FFFF602A0000FF231940062903D083180021197102E00A
:400CC0008318002119715300195AC31859808218002313727047C04670B506000D00012305E0220029003000FFF7E2FF23005C1E002BF6D170BDC04670B5094CC3001D1A6C
:400D0000AA00A21895688A0051184A00AA181B1A99006118897E1000FFF7DEFF70BDC046602A000070B50500C200121A9300064AD3181B8B04E021002800FFF7DDFF2300B7
:400D40005C1E002BF7D170BD602A000010B5062303E02000FFF7E6FF23005C1E002BF8D110BDC04670B501230FE0FF231340062B05D063005E5A1B199D002E5204E06300B9
:400D80005E5A1B199D002E5223005C1E002BECD170BDC046F0B5012315E0FF231340062B08D065006F5A2E19B300C3185F806D5A9D8007E065006F5A2E19B300C3185F80A7
:400DC0006D5A9D8023005C1E002BE6D1F0BDC046F0B5012319E0FF231340062B0AD065006F5A2E19B300C318DF806E5A1E816D5A5D8109E065006F5A2E19B300C318DF80E2
:400E00006E5A1E816D5A5D8123005C1E002BE2D1F0BDC046F0B5474680B48046C200121A9300194AD3181B8B28E04346DA00D21A9300154AD318AA00521954009A6894465E
:400E40006444DE689F7E062F04D06B005B199A00B61803E06B005B199A00B6183A0021003000FFF77FFF3A0021003000FFF792FF3A0021003000FFF7ABFF2B005D1E002BE0
:400E8000D3D104BC9046F0BD602A000010B5062303E02000FFF7BEFF23005C1E002BF8D110BDC04610B5FFF7F1FF10BDF0B501232FE0FF231340062B15D067007B5A9C46C0
:400EC0003E19B300C318DD8865441E89B44665445E89AD19AD0866465E81DE881E817E5ADE80CD5314E067007B5A9C463E19B300C318DD8865441E89B44665445E89AD1971
:400F0000AD0866465E81DE881E817E5ADE80CD5323005C1E002BCCD1F0BDC046884202D9030008001900914200D91100884200D208007047F8B55F4656464D464446F0B46E
:400F400080460E009346012329E0FF235A461340062B10D06F00B85B7B199C00444463889946A2881900FFF7D9FF4B46A380BB5B6380F05312E06B009A46985B5B199C002C
:400F8000444463889946A2881900FFF7C7FF4B46A38053469B5B63805346F0522B005D1E002BD2D13CBC90469946A246AB46F8BD9840504380235B009A1A51434018000A1D
:400FC0007047C046F0B5474680B482B007000E00019201234EE06300985BF3185988884205D3431A321900251572012201E00B1A0022002A11D17D79AB420ED933191B7A68
:401000003A7A934205D3220001993000FFF750FE2FE03219013313722BE03D79AB4204D97D79AB4225D8002A23D1FF23019A1340062B0FD00902331998461B791943082313
:401040000122FFF7B5FF020A6300F3185A80434618710EE00902331998461B79194308230122FFF7A5FF020A6300F3185A804346187123005C1E002BADD1002002B004BC04
:401080009046F0BDF0B5474680B407000E009046012322E0FF2342461340062B0ED06500A85B2A199300D95B00234022FFF780FF80B22A199300D853A8530DE06500A85B3B
:4010C0002A199300D95B00234022FFF771FF80B22A199300D853A85323005C1E002BD9D104BC9046F0BDC04670B504000D001600FFF720FF320029002000FFF7C3FF32004C
:4011000029002000FFF7D2FE70BDC04670B504000D009F2808D91B4B994205D91A49280001F0EEFB002921D09F2C09D9FF235B009D4205D91549280001F0E2FB002917D0A6
:401140009F2C07D97E2D05D97F21280001F0D8FB00290FD09F2C0FD93E2D0FD93F21280001F0CEFB00290BD000200AE0042008E0032006E0022004E0002002E0002000E034
:40118000012070BDFE030000FF030000FF01000010B54B1EDBB2032B01D8102300E00023002911D0002B11D0642253430100180001F020FB002301E0013340000928FBD912
:4011C0000A2804D9013B02E0002300E00023D8B210BDC046024BDB68802018407047C046C401002010B50E4BDB68DB030DD405280DD8430904339B00094A9B581F220240FC
:40120000D340DB0705D4012404E0112402E0012400E00024002C01D100F016FE200010BDC401002010B5084BDB68DB0307D4074B1B78012B05D100F05BFD002003E011204C
:4012400001E00120404210BDC40100209001002010B50F4BDB681B0618D400240120404211E02000FFF7BEFF00280BD1042C03D80122084B5A7002E00022064B5A70FFF729
:40128000D1FF04E00134052CEBD900E0112010BDC401002090010020F0B557464E464546E0B4804601280BD0022804D000239A460633994607E005239A460023994602E031
:4012C00000239A469946164C00251FE001F099F92268136821698B43136066683268A77E0721B9408A434946B9400A433260227E514691400B4322681360A26813686169AF
:401300008B43136001F081F91C340135052DDDD9404600F0C7FA1CBC90469946A246F0BD802B000010B51B4A93780133DBB293709078C0B2FFF756FF041E09D1154B9B7862
:40134000052B02D10022134B5A70FFF76BFF1EE0104B9B78052B11D10F4B1A8901321A81DA6880218A43DA60DA681202120ADA60DA6804061443DC60002408E0064AD3686B
:401380001B021B0AD360D16803060B43D360002CC9D110BD90010020C4010020074A084B1A6001380002074B1860054B1B68002BFBDB054A024B1A607047C0464000004082
:4013C000000001400003014040FF008010B50300052801D8002000E00120002803D15521180000F04DFE10BD70B50024002504E02000FFF7EBFF05430134052CF8D928002F
:4014000070BDC046C300181A8300024AD3185B6898897047602A00000203121A01238B40013B9A4205D90202101A834203D3052002E0062000E00020C0B2704770B50E003D
:40144000FFF7E0FF05003188002200F065FB01002800FFF75BFE041E04D168003188FFF7DBFF040021002800FFF792FE0001C0B22043B07370BDC04610B5002409E0E20054
:40148000121B9300044AD31859682000FFF7D6FF0134052CF3D910BD602A0000F0B55F4656464D464446F0B483B00190284C2368F0273B400093274D2B680221894619401D
:4014C0008846254E336838218B4619408A4601F098F82368BB43236001F097F801F091F82B6849468B432B6001F08FF801F089F8336859468B4330221343336001F085F820
:401500006B46988800F0A2FF01F07BF8336859468B4351460B43336001F077F801F071F82B6849468B4341460B432B6001F06DF801F067F82368BB43009A1343236001F0C8
:4015400064F803B03CBC90469946A246AB46F0BD00040240000404400804044070B505000E00140001F04DF82B685C4034405C402C6001F04AF870BD10B5074A13680121EB
:401580008B4313600022EF310448FFF7E7FF00F049FC00F0D5F910BDA8020B400004024010B504000C4B1B78834214D0012B01D1FFF7E2FF012C05D100F0C8F90122064B2C
:4015C0001A7008E0022C06D0042C04D0032C02D00022014B1A7010BD9001002010B5FFF74BFF0020FFF758FE0021C723044AD1540020FFF7D5FF0120FFF7D2FF002010BD4C
:40160000C4010020034A044B11680B40000218431060704784000020FFFCFFFF01390843014B18607047C04600020B4010B5104B1B68702293431C0020230E4AD15C0E48AC
:4016400001F0D8F80D4B984204D820232343084A13600BE0084B984204D830232343044A136003E040232343014A136010BDC04684000020C401002000366E01001BB70082
:40168000034A044B1A60C5225204034B1A60704700008F01C0010B40C4010B40F0B5474680B482B00500C200121A9300224AD3185A689C68138801279F40013F0A2902D981
:4016C00008000A3800E000200A23984688444346642B01D9642398467843642101F08AF8060040467843642101F084F8010000270023019313E05300185B864208D8130033
:40170000814201D207E001235A1E002BF3D104E00623019301E0062301930A340137EA00521B9300044AD3181B8B9F42EBD3019802B004BC9046F0BD602A0000F8B54F462A
:401740004646C0B4070046688468B57AA84601237F200022914608E0B3185B7A994500D29946984200D9180013005A1E002BF3D100210CE0A3185B7A984200D91800130018
:4017800000E001235A1E002BF4D10A3401313B8B9942F6D34346002B13D0132813D80D49EA008A1850686B1EDB00CB18596801F021F84F4647437E2F07D8013DB572012049
:4017C00004E0002002E0002000E000200CBC90469946F8BD442C0000F0B55F4656464D46E0B482B007008A4643689B461B8801229A401300013B019301234AE05B465B19B9
:401800005B7A9946BB686A00D05A4C46002208E05919497A8C4202D96800C05A0C000A330132F97E8A42F3D364235843019900F0E1FF64306043514600F0DCFF814500D3FE
:4018400081465B465B194A465A72BC6800261CE06B00185B64235843019900F0CBFF643063195B7A584353464A465343984203D2631900225A7206E0C01A3230642100F0A7
:40188000B9FF631958720A340136FB7E9E42DFD32B005D1E002BB1D102B01CBC91469A46A346F0BDF0B54F464646C0B483B0012809D0022803D000270623994606E00527D3
:4018C0000023994602E0002700239946184C002527E000F096FE019022681368E1688B43136060680268A17C884607214646B1408A434946B1400A430260227C3900914041
:401900000B4322681360A1680B68627C944601226646B24093430B60019800F076FE14340135002DD5D003B00CBC90469946F0BD6C2B000010B50220FFF7B4FF10BDC04602
:4019400010B50020FFF7AEFF10BDC046F8B54F464646C0B43C4BC7229A5CC621585C824206D0FFF799FC384BC622995C01329954FFF7E0FF0120FFF791FDC0221203334B35
:401980001A60334D2B68334A904613432B600024314B1C60314B1C60314B1C60314B1C60314F3C60314B1C60314B99461C60314E3460314B1C606022F0213048FFF7CEFDA0
:4019C000002202212E48FFF7C9FD2E4B1A68802149010A431A60802149002B4A1160882252021A604B461C602B68424613432B6080235B04254A13602549264A116002221B
:401A00003A602549254A11603360FFF739FE20230D4AD05CFFF7C2FC0120FFF7F3FDFFF705FE1F4B1B681F4A13431F4A13600F221E4B1A601E4B1C60053A1E4B1A600CBC19
:401A400090469946F8BDC046C401002004020B40A8020B4001000010F4000B40B4020B40C0020B4020030B4084010B4088020B4080020B4084020B4080010B4000040240AA
:401A80000004044094020B40A0020B40A4020B404112000088010B400000030190020B40840000200010008000000B4000030B40F0010B4010030B40F8B50700837ADB0024
:401AC0000F4A9D5800F09DFD0E4B1A680E4C22400E490E78BF19797A0A432A431A6000F094FD00F08EFD0A490B682340094A12689619727A13432B430B6000F086FDF8BDB7
:401B0000442C0000C0010B4080FF3FFC742C0000C4010B408C02002010B50300140001208840102900D11D38002B02D0190000F061FE053C012C00D84008002800D10130D0
:401B400010BDC04610B50E4B1A78D2B2D3009A1A93000C4AD3185B6899899B7B18045A1F012A02D8802292041043053BDBB2012B02D8490800D10131FFF750FD10BDC046A6
:401B800092010020602A000010B50300808919889A7BFFF7C1FF0004000C014B186010BD14030B4010B50A2000F016FB01222E4B1A6000232D490B602D490B602D490B60DC
:401BC00006202D490860FA302C4908602C490A60832149002B4A11602B4A136003222B4B1A60F02300E0013B264A1268520701D4002BF8D1002B02D10822244B1A6083223A
:401C00005200204B1A600A2000F0F0FA0A2000F0D9FA80225202194B1A600023144A1360144A136094229201134B1A605022144B1A6001230D4A13600B4A1360144A1368E8
:401C4000802149040B43136002220F4B1A60F02300E0013B0F4A1268520701D0002BF8D10D4A0A4B1A6010BD80010B408C010B40B0020B40B4020B4088020B4080020B4066
:401C8000F0010B40F0000B40F8000B4040030B4000020B4000000B400103000010B5054AD36805490B43D3600A2000F0CFFBFFF779FF10BDC40100208000010070B5040074
:401CC000857E067E00F09DFC23681B680F22B24093431A000423B3401343666832680721A9408A4332602268136000F08EFC70BDF8B5224B1A78D2B2D3009A1A9300204A13
:401D0000D3185F681F4BC7229A5CC621585C824206D0FFF7C1FA1B4BC622995C01329954194C00232370154E3278D2B2144DD3009A1A9300EB1899682378DBB29A00D31887
:401D40005A008A18114B1A603800FFF7B5FE3378DBB2DA00D31A9A0050592278D2B2D3009A1A9300C0180A4B1860FFF7A7FF094800F0EAF9FFF792FFF8BDC04692010020DC
:401D8000602A0000C4010020930100208C020020900200205927000010B5C300181A8300054A9858CB00591A8B00C018034B1860FFF784FF10BDC046602A000090020020B5
:401DC000F8B50400067E857E00F01BFC636819680723AB40994327683B680F22B24093433B60C7220E4FBA5C002A05D10623AB4019436368196008E0022A06D10332B2407F
:401E000013436268116022681360A1680B68647E0122A24093430B6000F0F7FBF8BDC046C401002010B5064B1B78012B06D1054B1868FFF7C5FF0022014B1A7010BDC046ED
:401E4000940100209002002070B5124EC200121A9300F3185D68C0B20F4C20700120FFF79FFBFFF7DFFF2378DBB2DA00D31A9A0092590A4B1A600A4BDA687F218A43DA60C2
:401E80002178DA680A43DA602800FFF77DFEFFF759FE70BD602A00009201002090020020C401002070B5C200121A9300134AD3185D68C9B2124C217099682378DBB29A00F9
:401EC000D3185A008A180F4B1A60FFF7BDFF2800FFF7F2FD2378DBB20B49DA00D31A98000B689C4660440860FFF7E8FE0122074B1A70074800F028F970BDC046602A000034
:401F0000930100208C02002090020020940100202D270000F0B5574680B484B00190C400241AA200534B9A1853689A461D000935012303E0002003AB985413005A1E002BE8
:401F4000F8D153461A8801239340013B59430800642100F04FFC06000023009370E0019BDA00D21A9300434AD3189F68009A9300944663445A00BF18012304E04023AB54FD
:401F8000B9184B7213005A1E002BF7D1402400990198FFF787FF0120FFF780FAFFF77EFE354B00E0013B354AD26812060DD5002BF8D101330AE05300DB5B9E4203D9A91899
:401FC0000B78A3430B70130000E001235A1E002BF1D1640801330FE0A9180B782343DBB20B70B8184372002C05D10B78002B02D101330B70437213005A1E002BECD1002C35
:40200000C5D1013307E003AB9B181878A95C884200D2197013005A1E002BF4D100990198FFF740FFFFF73AFE134B00E0013B134AD268120601D5002BF8D1009B013300936F
:40204000019BDA00D21A93000A4AD3181B8B009A9A4284D3012305E003AB995C53469B18597213005A1E002BF6D104B004BC9246F0BDC046602A000000A60E00C401002057
:4020800070B504000D00C3001B1A9A00174E9619174BDB68DB0324D4736804229A7229002000FFF737FF3000FFF748FB0028F6D129003000FFF790FB2000FFF7C5FEFFF746
:4020C00017FE0C4B00E0013B094AD268120601D5002BF8D1002B06D029002000FFF7DEFA02E0112000E0102070BDC046602A0000C401002000366E01014B98667047C04660
:402100000000002010B5040000F07BFA044A1168044B0B40A4051C43146000F076FA10BD08E400E0FFFF3FFF8022D200014B1A607047C04600E100E08022D200014B1A604D
:402140007047C04680E100E010B50400FFF7F4FF2000FFF7D1FF0320FFF7D4FFFFF7E4FF10BDC0460C4B1B689B001C22134018330A4A1268920803210A40D3400849086836
:40218000084A02400A60084A944663441B78DBB2064A13607047C046080F03402800034000000740FFFFFFBFCDF1FF0F0C0F0340034B18688023DB05184000D0012070476B
:4021C000000007401F2318401E3B8340014A13607047C04600E100E01F2318401E3B8340014A13607047C04680E100E01F2318401E3B8340014A13607047C04680E200E0C1
:4022000001BE704770B504000D000F2802D90020FFF7F6FF1034A40080239B059C4664442068256070BDC04670B504000E00032902D90020FFF7E4FF0F2C02D90020FFF77D
:40224000DFFF03252540ED00063500F0DAF9A408A400074B9C46644421680323AB4099430B003100A9401943216000F0CEF970BD00E400E010B5040006E0084B586800F00A
:40228000B7F9074B9C46644480231B029C42F4D8024B9868604300F0ABF910BD880000200080FFFF70B582B000F0DAF800284DD000F0A7F90500264B1A6892001C231A40A0
:4022C0001832244B1B689B0803210B40DA400021214B1960214C2168214B0B4021494A438021C9018C466244D20B013A5205520D1343A0225203134323601B4B1B68019358
:40230000302000F04DFA194A13688021C9050B4313602668164B1E40002407E00120FFF7A9FF1034A30533430C4A1360EE2CF5D90120FFF79FFFFF239B051E43074B1E6036
:40234000019A094B1A60280000F05FF902B070BD080F0340280003400C0F03400800074000F800C040420F003000104000000740FFFF3FC0F0B583B0040018280BD01C28EB
:4023800009D0202807D0242805D0282803D02C2801D0302849D100F034F90190FFF708FF002803D0FFF7DEFE012600E00026214A136807218B4313601F4BE3181B78DBB2D1
:4023C0001E4A13601E4A13688B4313601D4803687F22934319001C4BE3181B7813400B430360322000F004F9182C16D9114F3B680725AB431A0023001C3B9B082B401343FE
:402400003B60322000F0F4F83A68AA432300183B9B082C001C4014433C60012E01D1FFF741FF019800F0F1F802E00020FFF7E8FE03B0F0BD080F0340CDF1FF0F0C0F034045
:40244000100F0340180F0340B4F1FF0F10B5034B1B7B584300F0CCF810BDC04688000020034B1B68002B01DA012000E00020704700000740014A024B1A6070476588EDAC25
:402480003800034010B500F08FF810BD10B500F037F810BD10B5044A1368802109060B431360FFF7EFFF10BD0000094010B5064B1B78002B04D1FFF7E9FF0122024B1A706D
:4024C000FFF7E8FF10BDC04696010020044B1B681F221340082BF9D0024B18607047C046080209404002094070B506000D00002403E0305DFFF7EAFF0134AC42F9D370BDEC
:40250000154A164B1A600023154A13601549164A1160164A16490A6007201649086016490B6006381549086015490A60154A13600421154A1160154A1360154A1360154AC6
:402540001360154A1360154A1360154A13601268144B1A807047C0460B000002000009404000094001000A00480009400700008000030940040309401003094044000940BB
:40258000000209400402094050000940880E0940C80E0940480F0940080F0940C80F0940880F094098010020064A1168064B0B40902109040B431360044B1A88044B1A6093
:4025C0007047C04600000240FFFF0FFF98010020880F094004490A68D2B208239A43C000184010430860704700010440000000000230800803D001300238FCD1C046C0464C
:402600007047EFF3108072B6704780F310887047114B1A78D2B2D3009A1A93000F4AD3185B680F4A11680A04120C188801238340013B9A4206D20B4B1A680B4B1B785B00AC
:40264000D15205E0074A1168074A127852008B520022064B1A60704792010020602A0000D0000B408C020020742C000088020B4070B5274B1978C9B2264CCA00511A8A008B
:40268000A21850681A78D2B2D1008A1A9300E3181A7E013A204B1B78DBB29A4220D91E4C23780133DBB22370194D2A78D2B2D3009A1A9300174AD31899682378DBB29A004E
:4026C000D3185A008A18154B1A60FFF7F5F92878C0B22178C9B2FFF75FFBFFF763FA16E000220D4B1A700E4AD1680E4B0B40D3600D4B1B78012B02D1FEF714FE07E0084BDF
:40270000DA6880218A43DA601A8901321A8170BD92010020602A0000930100208C020020C4010020FFFFFEFF9101002010B583225200064B1A60FFF76BFF054B1A890132D3
:402740001A81D968034A0A40DA6010BDF0000B40C40100207FFFFEFF10B50D4B1B78DBB2DA00D31A9A000B4BD4580B4B1A78D2B2D1008A1A9300E41883225200074B1A60F1
:40278000FFF746FF2000FFF71BFBFFF771FF10BD92010020602A000093010020F0000B4070B50400FFF72DFF0500102C05D8104A136803218B43136016E0202C07D80C493A
:4027C0000B6803229343023A13430B600CE0302C07D807490B6803229343013A13430B6002E00020FFF70CFD2800FFF70EFF70BD30001040002243088B4274D303098B425A
:402800005FD3030A8B4244D3030B8B4228D3030C8B420DD3FF22090212BA030C8B4202D31212090265D0030B8B4219D300E0090AC30B8B4201D3CB03C01A5241830B8B4217
:4028400001D38B03C01A5241430B8B4201D34B03C01A5241030B8B4201D30B03C01A5241C30A8B4201D3CB02C01A5241830A8B4201D38B02C01A5241430A8B4201D34B02AA
:40288000C01A5241030A8B4201D30B02C01A5241CDD2C3098B4201D3CB01C01A524183098B4201D38B01C01A524143098B4201D34B01C01A524103098B4201D30B01C01ADF
:4028C0005241C3088B4201D3CB00C01A524183088B4201D38B00C01A524143088B4201D34B00C01A5241411A00D20146524110467047FFE701B5002000F006F802BDC04656
:402900000029F7D076E770477047C046014B18687047C046FC0000200E4B70B500251E000D4CE41AA410A54204D0AB00F35898470135F8E700F0A0F9084B00251E00084C4D
:40294000E41AA410A54204D0AB00F35898470135F8E770BD842C0000842C0000842C00008C2C0000002310B59A4203D0CC5CC4540133F9E710BD03008218934202D0197086
:402980000133FAE77047000000000000D80100001002000010020000100200001002000010020000100200001002000010020000100200001002000010020000100200009A
:4029C00010020000100200001002000010020000100200001002000010020000100200001002000010020000100200001002000010020000100200001002000010020000B7
:402A0000100200001002000010020000E0010000E8010000F001000010020000F801000010020000100200001002000000020000100200001002000010020000100200001A
:402A4000100200001002000010020000080200000D0A000000FFFF002020202020200000802B0000E601002048020020680100208801002001280000010001019C2B000000
:402A8000F6010020520200205C010020840100200128000001000101B82B0000060200205C02002050010020800100200128000001000101D42B00001602002066020020B7
:402AC000440100207C0100200128000001000101F02B00002602002070020020380100207801002001280000010001010C2C0000360200207A0200202C0100207401002087
:402B000001280000010006010C00C80028280A031E200400080000000C00C80028280A031E200400080000000C00C80028280A031E200400080000000C00C80028280A03C2
:402B40001E200400080000000C00C80028280A031E200400080000001000F40128280F031E200400040000002C0100000002024008020440000204400000000F180612009F
:402B800000020240080204400002044004020440000F0000040000000802060000010240080104400001044004010440000000F0800000001C071500000202400802044078
:402BC0000002044004020440F00000000200000004010300000202400802044000020440040204400F000000010000000000000000000240080004400000044004000440FF
:402C000000F00000080000000C0309000002024008020440000204400402044000F00000080000000C030900060C0000C60B0000D00B0000DA0B0000EA0B0000F40B0000BB
:402C4000FE0B0000000000017C92000000000003F824010000004001E093040000004003C027090000008001009F240000008003003E490000430000F8B5C046F8BC08BC75
:402C80009E4670476501000045030000F8B5C046F8BC08BC9E4670473D010000B02C0000800000208000000098010000000000000000000020000004010000000000E02EFF
:402CC000C05D00001800000000366E010000000000000000000000000000000000000000000000000000000000000000752C00000000000000000000000000000000000059
:402D000000000000000000000000000000000000000000000000000000000000000000000000000000000000000000009C00002000000000000000000000000000000000D7
:402D40000000000000000000000000000000000000000000000000000000000000000000000000000000000000000000000000000000000000000000000000000000000053
:402D80000000000000000000000000000000000000000000000000000000000000000000000000000000000000000000000000000000000000000000000000000000000013
:402DC00000000000000000000000000000000000000000000000000000000000000000000000000000000000000000000000000000000000000000000000000000000000D3
:402E00000000000000000000000000000000000000000000000000000000000000000000000000000000000000000000000000000000000000000000000000000000000092
:0200000490303A
:0200000024DA00
:0200000490402A
:200000000000000000000000000000000000000000000000000000000000000000000000E0
:0200000490501A
:0C0000000002190B11A900011919368328
:0200000490600A
:0100000001FE
:00000001FF