:400000000040002011000000550400005504000010B500F027FA0000F7B572B680220021D2005C4802F017F980220021D2005A4802F011F90022FF251100584E1436574B9C
:40004000D0584B000700284009184800013001333018AF43F31801900198834207D0581E0078C0190400187802332070F4E70432142AE4D1EE214A4B09021960EE21494BD6
:400080003C201960484B55391960992347491B040B60474940260B60464943250B78464C83431A43D2B20A701621444A2438137800270B431370C022414B52031E60414BFC
:4000C000D8211A603023404A090113603F4A11603F4A3121136024223E4B1D603E4B1A603E4B92191A603E4B603A1A6002233D4A13603D4A11603D4A13601033236001F089
:4001000003FD3B4A3B4B3C491A603C4A3C4B07201A603C4B3C4A1A60FE2212020A603B4919603B490A6080213A4A49011A603A4A1160E021394A09011A60394A1160394A9A
:4001400039491A608022394B12061A604422384B1F60384B1A60384B033A1E60374B1A60374B01321D60374B1A6001F00FFC072001F02EFC344B354A1F60112323600E3B43
:400180001360334A01201360324B1F6000F044F9F7BDC04600300F4000400F407422000000030240000402400007024000500F4030500F4001700F403000104000700F40F3
:4001C0000000044008000440000304400803044018030440000404400804044018040440180604400007044008070440180704400600008004010B400003014000BF5D00E9
:40020000100301400000014044FF008040FF00800403014041FF00800C03014043FF00800803014042FF0080351C000008010B4000010B402C0101401C0101401801014069
:4002400014010140080101400C020B403000304030003140000E3F4010B5064C2378002B07D1054B002B02D0044800E000BF0123237010BD5001002000000000682200004B
:40028000084B10B5002B03D00749084800E000BF07480368002B00D110BD064B002BFBD09847F9E7000000005401002068220000C00000200000000010B5012001F026FE86
:4002C000024A13780133137010BDC0466C01002070B500F059FC2A4C0200A378C0B2607098424AD05840013807282BD801F0E8FE040A2A1B2A2A2A247322224B1A74224A12
:40030000127E04E072221F4B1A741F4A527E5A740023237001F084FD030058425841C0B201F072FD29E06622164B1A7400222270154A927E5A74EDE7A422124B1A74124A34
:40034000D27EE4E700250126D2B26260636833420DD00E4A0B4BAA5C1A7400225A7401F05FFD030058425841C0B201F04DFD636801355B086360042DE8D16378A37070BD25
:400380006C010020F101002018020020C400002010B562B601F0ACFD01F0A8FC1A4C12220021200001F057FF00F0B4F822001021122000F01DF900F0C1FA00F0EBFB00F0BA
:4003C00091FC00F0BBFD114801F042FD00F07EFD002814D100F0D4FA00F0E6FB0C4C0221200001F09FFC90210A4801F09BFCA01C032101F097FCFFF76BFF00F09FFD0A200C
:4004000001F0FAFAE2E7C046F1010020B90200006C220000180200200B4A1368002803D0802109060B4301E05B005B081360074A1368002803D0802189040B4301E0044927
:400440000B4013607047C04680033A4008010B40FFFFFFFD10B501F0C9FE03680C2B00D1FEE7FEE7F8B500250F49104B01394A1C14D000221F685C689E68A018B24203D001
:40048000B858A0500432F8E70200DE68141AA64201D020C2FAE710330139E8E701F0ACFEFFF776FFFEE7C046010000004024000001210D4A70B5136814008B431360002302
:4004C0000A4D0B4E0B489A002900032B00D8B15801338150302BF6D1FFF79EFD012223681343236070BDC046000010405504000000000000000000208021054A10B51368BC
:4005000009060B431360082001F062FA10BDC0460000244010B5054C2378002B03D100F007F801232370FFF7E7FF10BD7801002010B50024194B1A4A1C601A4B1A491A6038
:400540001A4B1B4A082013601A4A14601A4A11601A4A13601A4B1C6001F044FA0321082001F01CFA1749082001F010FA5222164BFF321C60154B1C60154B1A60154B1C6098
:40058000154B1C60154B1C60154B1C70154B1C70154B1C80154B1C7010BDC0460000244000080040600024401000FE0007010080000324400403244010032440000224403B
:4005C0000402244021060000C80E2440880E2440480F2440080F2440C80F2440880F2440080200200C020020060200200402002070B506000D00141E0BD0082001F0F2F9DB
:40060000044B08201C60044B1E80044B1D8001F0DFF970BD10020020140200200A020020F0B59E4B85B01B68002B00D098479C489C4904680B689C4D01930223FF332A8816
:4006400023400295844603912DD0202497490B685B005B080B60964B1878A04318701878103C2043187093480568254206D1924C2478944206D01C78082501E002251C78B9
:400680002C431C708D4C8E4B25682B40236000238C4C236003608C48037080200B68000603430B60F6E00199C90601D587490B600A230199194200D17BE0854B1B685B07CD
:4006C00044D5844B804819680378002B10D0012B3AD1814E814D3088002833D02B60804BC9B21B6801389B181970013230802BE07C4D2E88794DB14224D201222A607A4A36
:400700001288914201D2531A9BB2734A1380072B02D80123037011E0684A6A48082B06D1A02513682D022B431360002305E080251368AD012B431360082303605E4B0A0025
:40074000197001E002232B60042130E05B4803689B042ED50221019B194008D0634B19681F2305680B4056492940016007E05A4D2B88083B9BB22B80082B01D90823012122
:40078000574FD218D51A002B07D03E68013B7519504E3668F6B22E70F4E7002906D1802503682D022B430360464B19600C21504B196002230199194247D0E10613D500216F
:4007C000404801603B4801603B4909788A4200D008333749234008780343202083430B700021394B197063062DD520211020304A13780B431370304B1A783E4B1B680342E8
:4008000011D08025374B34491B886D029B1A0B80394B1968294319601D68384929401960244B186002E00421264B1960012160461025334B1960334B0360334803682B430E
:400840000360264B196063461C60039B1B685B0720D5FF20002484461F26214B1E491F682A4D0B88002B08D0B8180078013BC0B2286001329BB2012401E060462860244837
:40088000006830400828EDD1002C00D00B801021204B1960029B1A8005B0F0BD7C010020400F2440000E244006020020000024400C020020880F24400402002060002440DC
:4008C000FF5FFFFFC80F244008020020880E2440CC0F244040032440800100206C00244010020020140200200A02002008032440C00F24406400244004022440FFFFFEFF83
:40090000800E2440FF0F0000480F24404002244008022440800F244010B5074C2378002B05D100F0F9F800F035F90123237000F045F800F031FC10BD8201002070B5FFF7B6
:40094000EBFF041E13D100F0C0FB041E0FD100F0F5FA041E0BD1094D00F0B8FA002803D0002D03D0013DF7E7002D00D1102400F087FA00F0B7F9200070BDC046404B4C0081
:40098000F8B50026012734001C256543094BED18094B1B69E3403B4207D0280000F03DF829000600200000F097F80134042CEBD13000F8BDE42200001802002000220D4B9C
:4009C00070B55A610C4C013A0C4D0D4E1A61B5420FD00021A27D23682970012A06D1E068884203D0A28AD97901F035FC1C34013DEDE770BD18020020E8220000330200206C
:400A00002F02002010B500244A880B88CC809B1A0279934200DDCB8010BDF0B500240500C36885B0877E0093836801940393436802930A266643039B9E192B8B9C4215D20C
:400A40003A003100009800F030FA31003A00029800F056F9310001900298FFF7D3FF062F02D0009B0C3300930134E2E7019805B0F0BDF7B50B8B8C68019301234D6809696F
:400A8000019A561E019626D31A006E88AF79B4460240F61B002A01D13E006644E788BE4203D293420AD01A0002E0002A11D000220E78013EF6B20E70002E06D198431043F4
:400AC0000126002A00D1EE790E705B000A340131D6E79843F7E7FEBD70B50E4B05001A18107E8A7E1C00012A01D1FFF7C2FF1F22631918766B0904339B001540E3181E3A9F
:400B0000AA405968002802D191430A0000E00A435A6070BD18020020F8B5184C90220021200001F098FBB123DB002380144B0322A38080235B00A383230020008F331A70AF
:400B40000123104D2030291D3D32A3772E0001F079FB2B00BC364C33B3420DD01C8A280022001968013A04D3077801304F720A31F8E72D191C33EFE7F8BDC0461802002066
:400B8000B80B0000A0220000014B58697047C046180200200023024AD380024A1360704718020020B8010020F8B500272F4D304C2B68032B05D101F0B8F90123E38001F0E4
:400BC000B8F9E688F6B2701E052821D801F078FA030D050B0D10012308E0FFF7AFFE002301272B6007E0022300E000232B6002E003232B600CE001F098F9E388DBB29E42E2
:400C000004D18023E2881B021343E38001F091F92B68012BCAD0022B25D12300220088331B7889321178DBB2C9B2032B1BD81C225343104AD3181A8B914214D225008A35AA
:400C400020892A8890420ED00A2671439B685E1801F06BF923898C349BB22B8033889BB2238001F066F93800F8BDC046B801002018020020E4220000C9B28318062901D036
:400C800000211971520080180288428000221A72704710B50022FFF7EFFF10BD1C235843054B10B51B189C689A7E0A234B431100E018FFF7EEFF10BDE42200001C2370B53A
:400CC00004004343064AD3181B8B5D1E002B05D029002000FFF7E2FF2B00F6E770BDC046E422000010B50320FFF7E8FF0220FFF7E5FF0120FFF7E2FF0020FFF7DFFF10BD33
:400D0000F8B505000800038844881100A34205D26E79E21AB2421DD8002603E000261A1B067201362F79BA420ED8FF25294006291AD002792402144365431B02EB181A0AE2
:400D40001B0C438002710FE06D79AA420CD8002EEBD009E0037A2A7A9A4202D90133037202E00022FFF788FF0020F8BDD2B2062A01D00B8803807047D2B210B5062A09D024
:400D8000C0220B889C0103885343E3181B0A9BB203800B8010BDD2B2062A02D00B88438083807047D2B270B5062A11D00A884488150026008388A24201D9250016008480C7
:400DC0004280B34200D93300AB4200D22B000B8070BDD2B2062A03D00B88C38003814381704700001C210A22F0B587B00390039B1B484B43C3181B8B04905A430A3A019242
:400E00000C221F005A430C3A02920591002F24D0039A059B01995343049AD3189A689E7E5518DC68062E01D0029BE418320029002000FFF79BFF320029002000FFF7ABFFAC
:400E4000320029002000FFF7C4FF019B013F0A3B0193029B0C3B0293D8E707B0F0BDC046E422000010B50320FFF7BCFF0220FFF7B9FF0120FFF7B6FF0020FFF7B3FF10BD17
:400E800010B5FFF7EFFF10BDD2B270B5062A0BD00C88C5880689428963199B199B189B0846810581C4800B8070BD70B50D0016000400FFF777FF320029002000FFF75CFF7A
:400EC000320029002000FFF7DFFF70BD024BD868802318407047C0461802002080230A4A10B5D4685B021C401123002C09D1103B032806D81269C2401A4202D000F054FBCE
:400F00002300180010BDC04618020020094B10B5DC6880235B021C401120002C09D1064B1B78012B03D100F09FFA200001E00120404210BD18020020BC0100200C4B10B568
:400F4000DC68802311201C4011D12000FFF7C6FF002809D1074B032C02D001225A7000E05870FFF7D3FF02E00134042CEDD110BD18020020BC010020F7B50600012807D0F3
:400F8000022802D00025062704E00525002701E000252F00164C00F0C8FF01900720231F1A68E16813688B431360A17D9C46884023681B68834338008840216803430B6009
:400FC0002900237D019899400B0061460B4313606268216913681C348B43136000F0A9FF044B9C42D7D1300000F0FEF8F7BDC0466C230000DC23000010B5174CA3780133A1
:40100000DBB2A370A078C0B2FFF768FF002806D1A378032B00D16070FFF778FF1BE0A2780E4B0006032A0ED180211A8901321A81DA688A43DA60DA681202120ADA60DA680A
:401040001043D86007E0DA681202120ADA60DA681043D860D1E710BDBC01002018020020064A074B01381A60064A000210601A68002AFCDB044A024B1A6070474000004003
:40108000000001400003014040FF0080064A074B01381A60064A000210601A68002AFCDB044A024B1A60704741000040000001400403014041FF008010B5032801D90120D1
:4010C00002E0552100F0CEFA10BD70B5002425002000FFF7F1FF01340543042CF8D1280070BD000001238B4010B5094A013B927F44005A434003031BC020934205D9FF2389
:4011000000205C43A24240418001C0B210BDC0461802002070B5064C064E25681C34A88929884000FFF7DEFFA873A642F5D170BDE82200005823000070B5050014000E0027
:4011400000F0F3FE2B685C4034405C402C6000F0F0FE70BD70B50E4D04002B78834216D0012B09D1F021002209010A48FFF7E4FF00F00AFA00F071F8012C03D100F072F8D0
:401180002C7004E0023C022C01D900232B7070BDBC010020000402400F2070B50F4CF02223680F4D834319002B7803400B4393431A002B788343134323600024FFF7AAFFAB
:4011C0000020FFF7D9FE074B20008F331C70FFF7C1FF0120FFF7BEFF200070BD00FF284062F1FF0F18020020F7B5012803D0022804D1052400E00024002501E00024062540
:4012000000F093FE114B9F7C1E68BC463268D96807278A435968326000910968019161468F400199B9436746BD402943009D2960197C8C401443346099685C7C0123A340FD
:401240000A689A430A6000F074FEF7BD5423000010B50220FFF7C8FF10BD10B50020FFF7C3FF10BD70B5114C25008F348E3528782378834203D0FFF77FFE2B782370FFF7AE
:40128000E7FF0B4B0B4AF0211A60C0220901D2000948FFF751FF094A094B11680B401360084A1343084A136070BDC04618020020080028400002000100040240C800002064
:4012C000FFF9FFFF2028E88104002840F8B50600837A0E4ADB009D580D4F00F026FE0D4B3A681C780C4B2904361913400B43717A2B430B431A00094B1B681C19637A1B04C8
:4013000013433B6000F015FEF8BDC046D823000008002840E823000000FB80FBA802002010B5094B09491A781C235343084A0C68D318C0225B68944398899B7B23430B6041
:40134000FFF7A4FE10BDC046BE010020C8000020E4220000012302889340024A013B1B0453607047C8000020F7B500F0DEFD1D4D1D4C2F0022681D4B019013432B601C4B77
:40138000987FFFF76DFE1B4B1B4A1A601A68002AFCDB1A4A174B1A4D1A6027202E6800F0BBFD184B184A334013432B600821F123164A1068084202D1013B002BF9D12E60B7
:4013C0002268134B112013433B6000F001FB6F2000F0A2FD62680F4B01981A6000F0A9FDF7BDC04604002840C80000202028E88118020020000001404100004041FF008091
:401400000800284000E8FFBFF0060040100028402038E8810C00284010B5044A0449D3680B43D360FFF7A0FF10BDC0461802002080000100F8B50400077E857E00F075FDD9
:401440000F22BA40266807213368A94093431A000423BB406468134322688A432260336000F067FDF8BD00001C23F7B51A4C1B4D26002A788E365343194A8F34D3185B68AF
:40148000019330782378834203D0FFF775FD3378237000231C24134E114F33702A78317862430A334B43BA1892680198D3180E4A1360FFF70BFF2B78307863434443D859D1
:4014C0000A4B00191860FFF7B5FF094800F01AFAFFF7A2FFF7BDC04618020020BE010020E4220000BF010020A8020020AC020020911F00001C2302005A434B43044910B5F1
:401500005058C018034B1860FFF794FF10BDC046E4220000AC020020F7B507270400857E067EAF4000F001FD626801901368BB43276819003B689C460F236046B34098434C
:40154000386003000F4884468F20844460460078002804D10623AB400B43136006E0022804D10525B5402B4311603B600122A168647E0B68A24093430B60019800F0D9FCC8
:40158000F7BDC0461802002010B5054C2378012B05D1044B1868FFF7BFFF0023237010BDC0010020AC020020F8B51C24230043430F4D104FC0B2FB18287001205E68FFF784
:4015C000C9FDFFF7E1FF7F212B7830005C430A4BE2591A60094BDA688A43DA602978DA680A43DA60FFF7B6FEFFF79AFEF8BDC046BE010020E4220000AC020020180200204C
:4016000070B51C2423004343104A114DD2180A23C9B22970297856684B439268D3180D4A1360FFF7C1FF3000FFF750FE28780A4B60431A6810181860FFF7FCFE0122074BD4
:4016400007481A7000F05EF970BDC046E4220000BF010020A8020020AC020020C0010020391F0000994BF0B5DA68802389B05B021340029003911122002B00D022E11C2175
:4016800002004A439248079182185768BB7201203B8864219840039B0138584300F01AFD0024029A079B06905343894A0194D3180593059B019A198B08338A4233D20A2556
:4016C000019B40265D43059B7E729B685D1907236E72049301990298FFF792FFFFF79CFE7C4B7A4A8020D168014202D0013B002BF8D12B88069A9A4202D97B7AB3437B72C8
:401700007B7A76083343DBB27B726B72049B013B0493002BDED17B7A002B30D101337B7201236B722BE01B687C720193BD7A261E02D07F237E2C00D823000A224A430199E3
:401740008A1804920A0004998A4205D0517A8B4200D90B000A32F6E7002D29D0132B27D85D49EB00013DEA00CB188A185168586800F0B0FC46437E2E1AD8BD7287E7019940
:4017800002987D7AFFF73CFFFFF746FE8022514B4E49C868104202D0013B002BF9D12B1CA54200D2231CDCB2019B0133019380E7019B029A18881C235343454A2500D318EF
:4017C0000022DB7E0693019B06998A4208D2597A8D4202D80A330132F6E718880D00F9E701233A889340013B059364230599584300F070FC64306843039900F06BFCA042E1
:4018000000D9200032230025039E019C46439B1B78720793069BAB4216D9642320880599584300F057FC637A64305843B04208D3079B6421181800F04DFC60720A3401355D
:40184000E8E700236372F9E780240298FFF7ACFEFFF70AFE21491D4AD0680300234005D0002901D00139F7E710222BE01022002928D001243A8818009440039B013C0A2B1C
:4018800001D918000A386043642100F023FC039D06000A35642D00D9642520006421684300F018FC0022049B01998B420AD0019B1B88B34201D3834200D90622019B0A33E8
:4018C0000193F0E7100009B0F0BDC04618020020E422000001A60E00D823000000366E0110B5040000F021FB044A054B1168A4030B401C43146000F01CFB10BD10E400E013
:40190000FF3FFFFF10B58024054BA4021C60054B0833D8670320FFF7E3FF034B1C6010BD80E100E00000002000E100E000233F2030B50C490C4C0A681D5D0240AA4201D112
:40194000033303E001332E2BF5D12B3B0749084A086802400A60074A9B181B78064ADBB2136030BD2CFF0B40E923000000002240FFFFFFBFCDF1FF0F28FF0B40024B186858
:401980004000C00F7047C04600002240024B8000C31818681960704740000020F8B5032605003540B5400F0004000635AE40AF4000F0BBFAA408054BA400E4182368B3430F
:4019C0001F43276000F0B5FAF8BDC04600E400E01F2318401E3B8340014A13607047C04600E100E01F2318401E3B8340014A13607047C04680E100E070B5802504002D027F
:401A0000064BAC4205D9586800F086FA044BE418F6E79868604300F07FFA70BDD00000200080FFFFF0B585B000F0AEF8002855D000F07BFA002301903F202949294C0A68FC
:401A40001D5D0240AA4201D1033303E001332E2BF5D12B3B00211F20234A116023490A68024204D10A688243133802430A60204C204A2168204E1140A022520311431F4AC2
:401A8000302053438022D2019B18DB0B013B0B43236033680025039300F0F0FA8021184AC90513680B4313602268164B1A40170001201035FFF7A0FFAB053B432360F02DC3
:401AC000F6D10120FFF798FFFF23094A9B053B431360039B0198336000F02BFA05B0F0BD2CFF0B40E923000028FF0B4034FF0B400800224000F800C03000104040420F0085
:401B000000002240FFFF3FC030B587B0040000F00CFA0500FFF732FF0022904202D0FFF705FF0122104B1148196802AB02911049096803910F490C19033C217804910E490D
:401B4000096805910D490091694601930C4B19600C4908601B68012A01D1FFF763FF280000F0E7F907B030BD08010B401700008000010B40E923000030001040B6EA0000D0
:401B80000800104004001040014B1868C00F70470000224010B500F0C8F9C021034A090213680B43136000F0C4F910BD00010B4010B5802400F0B9F90749084B0A68E4010F
:401BC0001A4022430A600A6813408022120213430B6000F0AEF910BD00010B40FF3FFFFF70B5050000F0A1F90E4B04001A68C0231B02134011D10C480C49054028000E6840
:401C00000B4A3240104308600A68012B01D1FFF7C1FF200000F08DF970BDFFF7C9FF0123E9E7C04600010B400404040010020B40FBFBFBFF042270B5224C2368134213D060
:401C400021494B6813420CD0204B5D6A48681540A8434860596A914359629B69002B00D098470420FFF7BCFF80232268DB001A4215D015494A681A420DD0144A556A4868E8
:401C80002B4098434860516A114B0B405362D369002B00D098478020C000FFF7A1FF80232268DB021A420CD0074A52681A4204D0064B1B6A002B00D098478020C002FFF78E
:401CC0008FFF70BD10020B40E4000020C4010020FFFBFFFF8021044A10B5136809060B43136000F07FF810BD0000274010B5054C2378002B03D100F021F801232370FFF7EB
:401D0000E9FF10BDEC0100201F2204490B681340082BFBD0024B18607047C046080227404002274070B504004518AC4204D02078FFF7EAFF0134F8E770BD0000154A164B33
:401D400007201A600023154A15491360154A1160154A16490A6016490860164906380B601549086015490A600421154A1360154A1160154A1360154A1360154A1360154A7E
:401D80001360154A1360154A13601268144B1A807047C0460B000002000027404000274001000A00480027400700008000032740040327401003274044002740000227401A
:401DC0000402274050002740880E2740C80E2740480F2740080F2740C80F2740880F2740EE010020F021054A13688B4360390B431360034B1A88034B1A6070470007024043
:401E0000EE010020880F27404023044980010A689A43D2B2034013430B60704700000440024B18684006C00F7047C0460400044010B5040000F079F8044AA40713689B0072
:401E40009B081C43146000F074F810BD10E400E010B58024054B24031C60054B8C3318600320FFF7E5FF034B1C6010BD80E100E00000002000E100E08022084B92041A6051
:401E80000C22074B1A60074B0B3A1A60FA22064B92001A600022054B1A607047000120402401204038012040140120400801204070B50D000400AC4000F037F8024B1C6094
:401EC00000F037F870BDC0460800204010B5012400F02BF8054A13682343136000F029F818212000FFF7E4FF10BDC0460000204010B5054C2378002B03D1FFF7BDFF01238C
:401F00002370FFF7E3FF10BDF0010020014B18607047C046300120400230800803D00138FDD1C046C046C0467047EFF3108072B6704780F31088704701220C4B1A600C4B8B
:401F400019680C4B1A680C4B1B785B0099520B4B0B4A1B6813430B4A13600B4B1A89D96801321A81094A0A40DA607047140028400C002840A8020020E8230000C800002048
:401F80002028E88104002840180200207FFFFEFFF8B51C242C4E2D4A33782D4D63439B58012228782B4F604318182B4B39681A602A4B1A682A4B1B785B005A52294B2A4A24
:401FC0001B681343294A1360FFF7A6FA337832781E4862438218127E2978013ADBB28A421BD96343C31858682B780133DBB22B7033782A785C43154B1C190A235343A2684B
:40200000D3183B60FFF762F930782978C0B2C9B2FFF770FAFFF7A8F914E000232B70144B144AD9680A40DA60134A1278012A02D1FEF7E2FF06E08021DA688A43DA601A893A
:4020400001321A81F8BDC046BE010020E4220000BF010020A8020020140028400C002840E8230000C80000202028E8810400284018020020FFFFFEFFBD01002010B504006C
:40208000FFF753FF102C04D803210C4A13688B430FE0202C05D80321084A13688B43023906E0302C06D80321044A13688B4301390B431360FFF73DFF10BDC0463000104090
:4020C00002B4714649084900095C49008E4402BC7047C046002243088B4274D303098B425FD3030A8B4244D3030B8B4228D3030C8B420DD3FF22090212BA030C8B4202D326
:402100001212090265D0030B8B4219D300E0090AC30B8B4201D3CB03C01A5241830B8B4201D38B03C01A5241430B8B4201D34B03C01A5241030B8B4201D30B03C01A5241D9
:40214000C30A8B4201D3CB02C01A5241830A8B4201D38B02C01A5241430A8B4201D34B02C01A5241030A8B4201D30B02C01A5241CDD2C3098B4201D3CB01C01A52418309EE
:402180008B4201D38B01C01A524143098B4201D34B01C01A524103098B4201D30B01C01A5241C3088B4201D3CB00C01A524183088B4201D38B00C01A524143088B4201D305
:4021C0004B00C01A5241411A00D20146524110467047FFE701B5002000F006F802BDC0460029F7D076E770477047C046014B18687047C0464C0100200E4B70B500251E002C
:402200000D4CE41AA410A54204D0AB00F35898470135F8E700F002F9084B00251E00084CE41AA410A54204D0AB00F35898470135F8E770BD282400002824000028240000B1
:4022400030240000002310B59A4203D0CC5CC4540133F9E710BD03008218934202D019700133FAE770470000000000000D0A00FFFF00000004300F4001310F4001330F401D
:4022800003420F4002430F4038803E4058045F011801B4016C407008DC03B448EC080000202020200C002C01FA280A031E200000040000000C002C01FA280A031E20000073
:4022C000040000000C002C01FA280A031E200000040000000C002C01FA280A031E20000004000000682300003802002078020020A8010020B701002001280000010001013A
:402300008423000048020020820200209C010020B60100200128000001000101A0230000580200208C02002090010020B50100200128000001000101BC2300006802002021
:402340009602002084010020B40100200128000001000101000602400806044000060440000F000008020600000402400804044000040440040404400000F00020000000C2
:4023800014050F000003024008030440000304400403044000000F001000000010040C00000402400804044000040440040404400000000F400000001806120000030240A2
:4023C0000803044000030440040304400000F0002000000014050F0000000000804F120000040000009F240000030405060708090A0B0C0E0F101112131415161718191BCC
:402400001C1D1E1F2021222325262728292A2B2E2F3031323334354300000000F8B5C046F8BC08BC9E46704781020000B1040000F8B5C046F8BC08BC9E467047590200009A
:4024400050240000C00000209000000060010000000000007372A4660008C0010000FF0F010000000000E02EC05D00001800000000366E01F000000004040400000000006C
:4024800000000000000000000000000000000000000000000000000000000000172400000000000000000000000000000000000000000000000000000000000000000000E1
:4024C00000000000000000000000000000000000000000000000000000000000EC0000200000000000000000000000000000000000000000000000000000000000000000D0
:40250000000000000000000000000000000000000000000000000000000000000000000000000000000000000000000000000000000000000000000000000000000000009B
:40254000000000000000000000000000000000000000000000000000000000000000000000000000000000000000000000000000000000000000000000000000000000005B
:40258000000000000000000000000000000000000000000000000000000000000000000000000000000000000000000000000000000000000000000000000000000000001B
:4025C00000000000000000000000000000000000000000000000000000000000000000000000000000000000000000000000000000000000000000000000000000000000DB
:020000040001F9
:0200000490303A
:02000000767810
:0200000490402A
:4000000000000000000000000000000000000000000000000000000000000000000000000000000000000000000000000000000000000000000000000000000000000000C0
:400040000000000000000000000000000000000000000000000000000000000000000000000000000000000000000000000000000000000000000000000000000000000080
:0200000490501A
:0C0000000002112D11A100011138881917
:0200000490600A
:0100000001FE
:00000001FF